:020000040800F2
:10000000400E0020C9000008052E0008E92700085E
:1000100000000000000000000000000000000000E0
:100020000000000000000000000000001D3100087A
:100030000000000000000000072E000871350008D5
:10004000DB00000800000000DB000008DB00000807
:10005000DB00000891090008DB0000089B0900088C
:10006000000000000D0900081D090008DB00000861
:10007000DB000008D5380008E9380008000000005F
:10008000F93800080939000800000000DB0000080A
:10009000DB000008DB000008DB000008DB000008D4
:1000A000DB000008DB000008DB000008113D000851
:1000B000DB0000080348854600F030FB004800479D
:1000C000DB530008400E00200448804704480047E6
:1000D000FEE7FEE7FEE7FEE7FEE7FEE7D5350008B0
:1000E000B500000830B50B4601460020202201244F
:1000F00009E00D46D5409D4205D31D469540491B5C
:100100002546954040191546521E002DF1DC30BDA4
:10011000F0B51FB40646002082B005464024019188
:1001200000901BE0019922460F46304600F020F86F
:10013000049A059B801A994110D31046194622460D
:1001400000F0EAF9361A8F4101972246012000217A
:10015000009F00F0E1F938184D4100902046641EE0
:100160000028DFDC019B00982946324607B0F0BD2D
:1001700010B5202A04DB0846203AD040002110BDEB
:100180000B46D340D0402024A21A91400843194680
:1001900010BDD2B201E00270401C491EFBD2704774
:1001A0000022F6E710B513460A4604461946FFF743
:1001B000F0FF204610BDF8B502464A40D40F420079
:1001C0004B0052085B089A4202D20246084611468A
:1001D0004A0023D0C30D4A00DDB2120EAD1A202D05
:1001E00035DA49020126490AF6058A19002C00D0A1
:1001F000524220214F1B1146B9402A411018C20D0E
:100200009A4221D0002C17D0012D08DCDA05801A83
:10021000D20F8019D207DBB200F096F9F8BDDA05EB
:10022000801A012340001B06C01880185A4280180B
:10023000CA0F1043490007E04908C2071143DA0515
:10024000801A80194008801800F076F9F8BD610026
:100250000122511A001BF7E70122D2075140AAE7F9
:100260000122D2075040A6E7024670B54A40D30F9C
:10027000DB0740002DD04A002AD0010E140E0002E8
:1002800012020919400A520A8418E501044654432F
:10029000000A120A2E045043A4194219200CC54327
:1002A000AA18120C0125AD03521C521912047F39F1
:1002B000240400D0521C104301D44000491EC2B295
:1002C0000C06C0092018401C4008802A02D003E018
:1002D000002070BD40084000002900DA00201843CB
:1002E00070BD70B502464A40D50F40004A00ED0788
:1002F00040085208002814D0002A12D0C40DD30D93
:1003000041020120C0055202490A520AE41A0918A2
:1003100012187D34914201D3641C00E04900002C86
:1003200001DA002070BD0023914201D3891A0343F2
:10033000400849000028F7D100290AD0914202D193
:100340000121C90705E0914201D2012101E001210B
:10035000C943E005C018401900F0EEF870BD000078
:10036000F0B50C465C4085B0E40FE40703944C0004
:100370000026640859009446490802460296224322
:1003800021D062460A431ED06200570D4A000E0378
:100390002303550D012402462C492405781B1B0B11
:1003A000360B401823432643614600901C46501AE2
:1003B000B44103D30098401C009002E092180098CA
:1003C0005B41002803DA0020014605B0F0BD0020A3
:1003D000012109050746864611E064461D46141BA7
:1003E000B54106D36546521BB341744607430C43DF
:1003F000A646CD0740084908284392185B410546A8
:100400000D43EAD11046184313D0604619465040B8
:100410007140084306D06046101AB34106D201224B
:10042000002306E000220123DB0702E00122D24381
:100430005310009874460105381C6141029C039DCD
:100440000019694100F0B9F8BFE70000FD030000A2
:1004500010B500229623114600F076F810BD00007A
:100460000EB505490291002100910A460B46019103
:1004700000F0B0F803B000BD3304000041004002BA
:100480000122400AD205090E80187F2901DA0020D6
:100490007047962903DC9622511AC8407047963956
:1004A00088407047C20FD207400040080BD0C10DF2
:1004B0000723DB01C91840020905400A1143C2089D
:1004C000400711437047002001467047CB0FDB0700
:1004D000490010B5490802460A4307D00A0D07240F
:1004E0000903E401090B121B002A01DC002010BDE6
:1004F000C900440F0C43C100E018D205801800F079
:100500001BF810BD0122D207002800DB101A0029B9
:1005100000DB511A8842704710B5202A04DB0146DF
:10052000203A9140002010BD914020239C1A0346A0
:10053000E3401943904010BD002904DA401C4900F3
:1005400001D140084000704770B40024050C05D16B
:100550001024000402D1002921D01124050E01D15C
:1005600000020834050F01D10001241D850F01D1BF
:100570008000A41C002801DB4000641C002908D076
:1005800020252E1B0D46F540A14000D00121294316
:10059000084301061B1B000ADB1D02D5002070BCAE
:1005A0007047DB05181880180029F8DA401C49004C
:1005B000F5D170BC40084000704710B5002B08DA38
:1005C0000024401C614192185B411A4301D140084C
:1005D000400010BDF0B51FB482B005460C0003D03A
:1005E000084603F09FFB02E003F09CFB203002462C
:1005F000009021462846FFF78FFF049B059A04468A
:100600000F4618431143084314D0184610431BD01B
:10061000009840210A1A18460599FFF7A9FD0546DA
:100620000E46009A05990498FFF776FF084305D017
:10063000012004E02046394607B0F0BD0020C11774
:1006400005430E432C43374300990E986305401A27
:100650007905E40A00220C43FD0A0A3002D5002085
:100660000146E9E70105101969410C9C0D9D00192F
:100670006941FFF7A2FFDFE7FEB500231A461B1A08
:100680008A4103DB0020014603B0F0BD4A000D03A0
:1006900001212D0B0905520D0D43D10702D1001880
:1006A0006D41521E5110FF31FF31013100270446C8
:1006B0003E46384600970191024601210020090577
:1006C000FFF756FDC3197141F818324684468E462D
:1006D0004A4161462846611A904104D36046241A73
:1006E000954176461F46241900986D41401C0090A4
:1006F0003428E1DDF91930467041091BA84103D2C5
:100700000022D243134601E000221346019801055E
:10071000381C7141FFF751FFB6E70000064C012578
:10072000064E05E0E36807CC2B430C3C9847103499
:10073000B442F7D3FFF7C2FCB8DC0008D8DC0008ED
:1007400070B5044600688168490720D58168102685
:100750004907002905DA8168890702D48168314395
:10076000816000F08BFF05460DE000F087FF401B25
:10077000022808D9A06B3043A063E06B0121084335
:10078000E063084670BD206880684007EDD4002013
:1007900070BD10B50146406A826B50231A420AD1DF
:1007A000816B01225202114381630168CA681205FC
:1007B000920F05D020E0006B026B0846904710BDF9
:1007C000827E002A18D10A68120715D58A68530755
:1007D0000122002B09DB4B680C24A3434B60816B87
:1007E000130299431143816306E0816B202319436F
:1007F0008163C16B1143C16300F090FA10BD10B565
:10080000406A816B402211438163C16B0422114312
:10081000C16300F085FA10BD10B5406A00F07FFAA0
:1008200010BDF8B50446006881688907890F012961
:1008300028D10168C90702D1C168090422D581689D
:10084000052211401025012601290FD181680222BD
:100850001143816021680320086000F00FFF074604
:100860000CE000F00BFFC01B022807D9A06B284347
:10087000A063E06B3043E0630120F8BD206880682E
:10088000C007EED10020F8BDF8B504460020009066
:10089000206881688907890F012905D10168C90786
:1008A0002CD1C168090429D48168154A1026114049
:1008B0000125002915D18168294381601248114919
:1008C0000068FFF70FFC00E0401E00900028FBD1FD
:1008D00000F0D4FE07460CE000F0D0FEC01B02285A
:1008E00007D9A06B3043A063E06B2843E06301208D
:1008F000F8BD20680068C043C007EDD10020F8BDF6
:100900001700008040420F008800002010B5024808
:1009100000F032FC10BD00008001002010B502483C
:1009200000F02AFC10BD0000C401002010B50446F0
:100930000068054940181421FFF7D4FB80002064AB
:100940000248E06310BD0000F8FFFDBF0000024058
:1009500030B5056C0124AC40C56B6C600468636005
:100960004368102B036803D099600068C26030BDF3
:100970009A600068C16030BD01490870704700008E
:1009800034000020014988607047000034000020D6
:1009900010B5012000F0B6FD10BD10B50120C00259
:1009A00000F0B0FD0120800300F0ACFD10BD7047E9
:1009B00006490020C861064801690422114301610B
:1009C00001694022114301617047000020060020A8
:1009D00000200240064A0021D16106490A6902232B
:1009E0001A430A6148610869402210430861704750
:1009F000200600200020024010B5054B0022DA61DD
:100A0000044A1369012423431361018010BD0000CF
:100A1000200600200020024010B50B4A0020D168BB
:100A2000CB060A4904D5C86902231843C8611020BF
:100A3000D3685B0705D5CB6901242343CB6104212F
:100A40000843D06010BD00000020024020060020B6
:100A500070B5054600F012FE0646104C0AE0681C10
:100A600008D0002D04D000F009FE801BA84201D957
:100A7000032070BDE068C007F1D1E068800601D5B1
:100A80002020E060E068C00602D4E068400703D59B
:100A9000FFF7C2FF012070BD002070BD00200240A2
:100AA000F8B5394C207980070AD404F025FB0025DD
:100AB000364E002803D03648C088002801D0357053
:100AC000F8BD04F001FB002805D13079012802D0DF
:100AD000207900072CD5A078002805D0022803D063
:100AE0000A2801D00C2823D13078002820D1607941
:100AF00080060ED503F0D6F92649E0860A78DF2174
:100B0000012A18D09B22D200904202D96079084075
:100B10006071002005F05EFEA07800280DD002284C
:100B20000BD00A2809D00C2807D0642003F09EFBC4
:100B300001203070F8BD184AE6E7134F2573642092
:100B400020373877154820832079222108432071E7
:100B50006079042108436071FA2003F087FB207953
:100B6000BF2108404006400E20716079FD214008F9
:100B70004000084060713846203085807D77E587E9
:100B8000E57106F005FDD3E7080300200000002012
:100B90001005002010000020A9030000102700000D
:100BA0000A4600B50146024802F08AFA00BD00007C
:100BB00000FC000810B5002303E05C005B1C02533E
:100BC0009BB28B42F9D310BD0A4610B501460248CC
:100BD00002F082FA10BD000000FC0008102A02D0CA
:100BE000012A08D00FE00378002B02D05B1E0370AF
:100BF00009E0017007E003785B1CDBB203708B42F5
:100C000001D90021F5E7104670470000F8B500252E
:100C1000044620340095227D012A39D00122227514
:100C200003689E68760767D4384F4E68BE424DD041
:100C30009E6A0F78BA4016439E620123C26A1B0760
:100C40009A421FD0012A1DD0022A1BD0032A19D094
:100C5000042A17D0052A15D0062A13D0072A11D046
:100C600002688B6856697607760FB3420AD05369DB
:100C7000DB08DB005361006842690B7A5B075B0F9E
:100C80001A4342610A68102A04D0112A02D038E0BF
:100C90000220F8BD1E488368102A07D00122920561
:100CA000134383600868102803D02AE00122D2058C
:100CB000F6E7194817490068FFF714FA0A21484374
:100CC00000E0401E00900028FBD11AE0986A0E78E0
:100CD000B240904398620968102901D0112910D1BF
:100CE0000B488268102904D0012189058A4382605B
:100CF00007E00121C905F9E7816B202211438163D7
:100D00000125002020752846F8BD000001100000D4
:100D10000027014040420F008800002070477047C4
:100D200070470000F8B500260446002805D0A06BE7
:100D300025462035002802D007E00120F8BD00201C
:100D4000E0632875204600F0A9F8A06B1022C006C9
:100D5000002870DB2068816849076CD4A16B1301FF
:100D6000994302231943A16381688907890F0129E7
:100D700005D10168C9070FD1C16809040CD4C16845
:100D800018239943A3681943C16020680169636807
:100D900089008908194301612068C1683D4B1940E9
:100DA000C160207E617E8003C9030843A17E4B039E
:100DB0001843A36A012B02D001231B0300E0002388
:100DC0001843E36818432369022B09D00023184312
:100DD0002B79E57E5B0018430123012D02D00AE048
:100DE0000423F4E7002927D0A16B20252943A16320
:100DF000E16B1943E163E1690D46FF3DC23D02D05D
:100E0000256A294308432168CD680543CD60012543
:100E1000E16A2D07A94213D0012911D002290FD070
:100E200003290DD004290BD0052909D0062907D0A4
:100E3000072905D010E028E0012109040843DAE77A
:100E400021684D69ED08ED004D6121684D69A78D60
:100E50007F077F0F3D434D612168C9680E4D2940D2
:100E6000814207D10020E063A06B80088000401C15
:100E7000A06308E0A06B022188431043A063E06BED
:100E80001843E06301263046F8BDA06B1043A06311
:100E9000F8E700001902FEFFE7FF3F8370B586B058
:100EA000064614216846FFF77BF9264930688842D8
:100EB00045D125498A69401502438A618A69024001
:100EC00005924A69000202434A614A69024005925A
:100ED0004A69400002434A6149690324014005917F
:100EE000BC2000256A4631C209206946C00600F0D0
:100EF00015FB0094694615480295019400F00EFB1D
:100F00001348144C21C48020256060604000A0601C
:100F10008000E0602020656120610E48083C00F000
:100F200079F9002801D0FFF742FD34630022114611
:100F30000C20666200F02CFC0C2000F01DFC06B0BA
:100F400070BD000000240140001002400004004871
:100F50000800024080010020F7B504460068002523
:100F6000806840073DD426462036307D01280AD0CF
:100F700001273775607E012807D02046FFF784FCE3
:100F8000050002D02EE00220FEBDA06B16490840ED
:100F9000FF2101310843A0630020E0633075216B1D
:100FA00012488862216B1248C862216B114808639D
:100FB00021681C20086020684168102211434160AC
:100FC0002068C1683943C1602168206B4031029BB1
:100FD000019A00F049F92068816804221143816078
:100FE00000E002252846FEBDFEF1FFFF9307000842
:100FF00019080008FF07000870B5054604462035AB
:10100000287D012807D001262E752046FFF798FB82
:10101000002802D00CE0022070BD2046FFF701FC42
:10102000002805D1A16BFF22013291433143A16316
:101030000021297570BDF8B5064604462036307D7E
:10104000012807D0012737752046FFF779FB0500F7
:1010500002D024E00220F8BD2068C1684908490098
:10106000C160206B00F01FF8050003D0A06B402189
:101070000843A06320684168102291434160002D1D
:10108000204602D0FFF7CDFB09E0FFF7CAFB0500C1
:1010900005D1A06BFF21013188433843A0630020B4
:1010A00030752846F8BD30B5014620314B78002216
:1010B000022B04D0042383630A70012030BD03682F
:1010C0001C680E25AC431C6003681C68640864003F
:1010D0001C600123056C1C46C06BAC4044604B7027
:1010E0000A70002030BD70B50024014620314A78D6
:1010F000022A03D004218163012416E002681368E8
:101100000E25AB431360026813685B085B00136035
:101110000122056C1346AB40C56B6B604A70002220
:101120000A70416B002900D08847204670BD70B519
:1011300004001FD020680168490849000160206848
:101140000025056020684560206885602068C560CE
:101150002046FFF7EBFB216C01208840E16B4860E3
:10116000A562E56225636563A5632034657025701B
:10117000002070BD012070BDF0B4C16B0D68016826
:101180000C680422066C1346B3402B420DD0630753
:101190000BD50B689B0602D40B6893430B60016C64
:1011A0008A40C16B4A60C16A19E00227B740024613
:1011B0002F4001232032002F15D0A70713D50C682C
:1011C000A40604D40C680A25AC430C605370036C6D
:1011D00002219940C36B596000211170816A002976
:1011E00016D0F0BC08470827B7402F4210D024077C
:1011F0000ED50C680E25AC430C60046C1946A1405A
:10120000C46B61608363537000211170016BE6E76A
:10121000F0BC704770B5040021D002212046203078
:1012200005464170226811680E48A3680140606855
:1012300026691843E3683343184363691843A36975
:101240001843E3691843084310602046FFF76EFB1C
:101250000021A163012068702970084670BD01203B
:1012600070BD00000FC0FFFFF8B504468C4620306B
:1012700001780025012909D0012606704178002750
:10128000012905D0077002252846F8BD0220F8BDC7
:1012900002214170A7632068016849084900016084
:1012A00061462046FFF754FBE06A00282068016889
:1012B00002D00E22114306E00A2211430160206889
:1012C0000168042291430160206801683143016094
:1012D000DAE70000F8B5054623480F46017E0126EF
:1012E00001290BD0012101762868204C012807D064
:1012F0002046FFF7ADFB002813D030E00220F8BDF8
:101300002046FFF7A5FB002829D1FFF751FB204617
:10131000FFF79EFB064616480169042291430161CE
:101320001DE00020C04338606C6812E02046FFF7E3
:1013300051FB0E48FFF78CFB06460D48026902215F
:101340008A430261002E01D03C6008E00120800247
:101350002418A868810268680818A042E6D80248E4
:10136000002101763046F8BD2006002050C3000061
:1013700000200240034801698022114301610020DE
:101380007047000000200240F0B51FB407461A481D
:101390000024017E15461E46012907D00121017651
:1013A0001648FFF755FB002803D020E0022005B0C7
:1013B000F0BD012F02D0022F00D0042722012846C1
:1013C0003146FEF7D5FE81B2019862001018FFF792
:1013D00013FB0A48FFF73CFB09490A69520852000F
:1013E0000A61002803D1641CE4B2BC42E6D302497E
:1013F00000220A76DBE700002006002050C3000030
:1014000000200240064900200A69120607D5054A55
:101410004A60054A4A600969090600D501207047FB
:101420000020024023016745AB89EFCDF0B50022D3
:1014300058E0012393401C460C4052D096082B4D97
:10144000B6007519AF68AC4695072E0F0F25B5404D
:10145000AE463D400927FF06B84201D100270FE004
:10146000234FB84201D101270AE0224FB84201D1EF
:10147000022705E0204FB84201D1032700E00527ED
:10148000B740AF4212D11D4D2E68A6432E606E6844
:10149000A6436E60AE68A643AE60EE68A643EE60FB
:1014A0006546AD687446A5436446A5600568560068
:1014B0000324B440A5430560D508AD002D182E6A5D
:1014C000AC465507EF0E0F25BD40AE4365462E6274
:1014D0008568A543856045689D434560C368A3430F
:1014E000C360521C0B46D340A3D1F0BD00000140A5
:1014F0000004004800080048000C004800040140B7
:101500007047000010B504494A69024202D04861A0
:10151000FFF7F6FF10BD000000040140F8B50023FE
:101520008DE001249C40A44622407DD04C68022CD2
:1015300001D0122C0CD1DC08A40027183C6A5D07EE
:10154000ED0E0F26AE40B4430E69AE4026433E6218
:1015500005685E000324B4400F79A543BF07BF0FA1
:10156000B7402F4307604D68012D05D0022D03D0F1
:10157000112D01D0122D0ED18568CF68A543B7403B
:101580002F43876047686546AF430D79ED06ED0F41
:101590009D403D434560C568A5438C68B4402C43DD
:1015A000C4604C68E40049D5284CA5690126354340
:1015B000A561A4699D0834400094254CAD002F1905
:1015C000BC689D072E0F0F25B540AC430925ED06DD
:1015D000A84201D100250FE01E4DA84201D10125EE
:1015E0000AE01D4DA84201D1022505E01B4DA8428D
:1015F00001D1032500E00525B5402543BD60184C09
:1016000025684E689543F60300D515432560656847
:101610004E689543B60300D515436560A5684E68CE
:101620009543F60202D500E008E01543A560E568A1
:101630004E689543B60200D51543E5605B1C0A6809
:101640001446DC4000D06CE7F8BD000000100240FA
:10165000000001400004004800080048000C004859
:10166000000401400069084000D001207047002AB2
:1016700001D0816170478162704700000148806835
:10168000704700008C0000200248816802788918A9
:10169000816070478C00002010B506480168102258
:1016A00011430160002000F007F800F041F800202D
:1016B00010BD00000020024000B5014687B00022A6
:1016C000112000F065F8112000F056F81348C269A7
:1016D00010210A43C261C0690840059004A9684608
:1016E00000F080F900F09AF90D49FEF7FBFC0E4975
:1016F0000C4A0A600D4A401ECA604860002008611A
:101700008860084600F07EFD002802D0012007B066
:1017100000BD054800F0E6FDF9E7000000100240BA
:1017200040420F0000100040C8020020E703000004
:1017300008B508488169012211438161816911401E
:101740000091C26901040A43C261C0690840009067
:1017500008BD000000100240002809DBC106C90EC8
:101760000120884003490860BFF34F8FBFF36F8F9C
:101770007047000080E100E0002805DBC106C90ECB
:1017800001208840014908607047000000E100E046
:1017900010B502F003FB10BD0448026901040A43BE
:1017A000026102698A430261704700000010024032
:1017B0000248016882159143016070470070004043
:1017C0000A4B1A689208920002431A60084803699B
:1017D000042213430361012906D040BF20BF20BF6C
:1017E000016991430161704730BFF9E70070004023
:1017F00000ED00E0F8B505460068354CC00352D551
:10180000E0690026C00007D4E16920040143E161DA
:10181000E1690140012600912E480168C90510D4F4
:101820000168821511430160FFF728FF074604E0B5
:10183000FFF724FFC01B642824D826480068C00591
:10184000F6D5206A03273F02384020D06968394026
:1018500081421CD0206A226AB843012109040A434C
:101860002262226A8A4322622062C0070FD0FFF7F9
:1018700005FF009008E0FFF701FF0099411A1648A4
:10188000814201D90320F8BD206A8007F3D5206A80
:101890006968B84308432062002E04D0E169012042
:1018A00000078143E1612878C00705D0206BA96853
:1018B00080088000084320632878800605D5206BC7
:1018C00010218843E968084320630020F8BD000028
:1018D000001002400070004088130000F8B50F4669
:1018E000060059D03A4D2868C007C00FB84209D247
:1018F000286840084000384328602868C007C00FA7
:10190000B84249D13068334C81070CD5400704D523
:10191000606807210902084360606068F02188431D
:10192000B168084360603078C00726D0706801282D
:101930000ED0216802280ED0890700292CDA6168B0
:101940008908890001436160FFF798FE00900DE06F
:1019500021688903F1E78901EFE7FFF78FFE00991E
:10196000411A1D48814201D90320F8BD60680C214D
:101970000840716889008842EFD12868C007C00F0D
:10198000B8420BD9286840084000384328602868CE
:10199000C007C00FB84201D00120F8BD3078400721
:1019A00006D56068072109028843F1680843606032
:1019B00000F044F86168094A0906090F515CC84003
:1019C000074908600020FFF777FE0020F8BD0000FF
:1019D00000200240001002408813000088DC00084C
:1019E0008800002010B5072202600A4A53689B074E
:1019F0009B0F43605368F0242340836052680723A1
:101A00001B021A40C26004480068C007C00F08608B
:101A100010BD0000001002400020024004480549AB
:101A200000684968044A4905490F515CC84070473D
:101A3000880000200010024098DC000810B514A3B4
:101A40000FCB88B06C460FC415A30FCB0FC4184A38
:101A500051680C200B4603401648042B16D0082B67
:101A600014D18B021B0F6C46E45CD26A04AB1207E4
:101A7000120F9A5CC90305D500231946FEF748FBEF
:101A8000214601E020460C4902F063F908B010BD80
:101A900002030405060708090A0B0C0D0E0F1010AF
:101AA0000102030405060708090A0B0C0D0E0F10AE
:101AB0000010024000127A0000093D00FEB504004B
:101AC00070D02078DC4DC0074AD068680007800FCE
:101AD000012807D068680007800F022809D16868CC
:101AE000C00306D5286880033AD560680028E7D08F
:101AF00036E06168012914D001208004002901D05A
:101B0000052914D02A68012109048A432A6029681A
:101B1000814329606068002816D0FFF7AFFD0646B4
:101B20000EE028680121090408432860F2E72968CB
:101B300001432960F5E7FFF7A1FD801B64286ED8FB
:101B400028688003F7D50BE0FFF798FD064604E010
:101B5000FFF794FD801B6428F1D828688003F7D430
:101B600020780126800700283CDA68680007800F8B
:101B700007D068680007800F022809D16868C00391
:101B800006D42868800716D5E06801280AD112E03B
:101B9000E0680028286816D030432860FFF76EFD03
:101BA000074605E043E1FFF769FDC01B0228C6D8E0
:101BB00028688007F7D52868F82188432169C9007B
:101BC000084328600EE0400840002860FFF756FDFB
:101BD000074604E0FFF752FDC01B0228AFD8286873
:101BE0008007F7D42078000722D5E0690028686ACA
:101BF0000ED030436862FFF741FD074604E0FFF76F
:101C00003DFDC01B02289AD8686A8007F7D50FE00F
:101C1000400840006862FFF731FD074605E09DE09F
:101C2000FFF72CFDC01B022889D8686A8007F7D40B
:101C3000207804274007002860DA00200190E86936
:101C4000C00008D4E969B8060143E961E9690140C7
:101C500001200091019079480168C90511D40168FB
:101C6000821511430160FFF709FD009005E0FFF7C1
:101C700005FD0099401A642870D870480068C005B6
:101C8000F5D5A06801280AD0002801D0052810D079
:101C9000286A400840002862286AB84301E0286AA0
:101CA00030432862A068002812D0FFF7E7FC0090BC
:101CB0000AE0286A38432862F1E7FFF7DFFC009961
:101CC000411A5F48814249D8286A8007F5D50DE05E
:101CD000FFF7D4FC009006E0FFF7D0FC0099411A12
:101CE000574881423AD8286A8007F5D401980028DD
:101CF00004D0E969012000078143E9612078C0062A
:101D000035D5606901280CD0401D686B23D038435D
:101D10006863686B400840006863FFF7AFFC0646E5
:101D200022E0686B38436863686B30436863FFF791
:101D3000A5FC064604E0FFF7A1FC801B02285BD847
:101D4000686B8007F7D5686BF8218843A169C900E3
:101D5000084368630BE0B8436863F4E74CE0FFF7BF
:101D60008DFC801B022847D8686B8007F7D4206A57
:101D700000285ED069680907890F022942D0012630
:101D800036060228286805D0B0432860FFF776FCA5
:101D9000044633E0B0432860FFF770FC074604E0D8
:101DA000FFF76CFCC01B022826D828688001F7D4F6
:101DB000E86AE16A000900010843E862616AA06A12
:101DC000084369683D22120491430843686028680B
:101DD00030432860FFF752FC044604E0FFF74EFC56
:101DE000001B022808D828688001F7D521E0FFF7FA
:101DF00045FC001B022801D90320FEBD2868800194
:101E0000F5D416E00128F8D06868E96A01221204C6
:101E1000636A02409A420AD10907E26A090F9142B5
:101E200005D10F2189040840A16A884201D0012010
:101E3000FEBD0020FEBD000000100240007000400A
:101E40008813000070B5040012D0022120464030F3
:101E50000546417720680168402291430160204691
:101E600000F064F80021216669772977084670BD83
:101E7000012070BDF8B5040007D000262546403586
:101E8000A662687F002802D005E00120F8BD2E7709
:101E9000204600F065F802236B7720680168402235
:101EA000914301600721E0680902884201D90022BC
:101EB00001E0012212030F273F02B84202D08842FC
:101EC00000D0A662276B002F05D1884201D9236379
:101ED00001E001202063A16860686369084321690B
:101EE000194308430123A1695B0219400843E169D2
:101EF0000843216A0843A16A084321680860616BAE
:101F0000606AA36908431B0C0427E1683B4019433E
:101F100008432168104348602068C1697A029143F0
:101F2000C1612666012068770020F8BD10B504461F
:101F30000068084988420BD107488169821491439F
:101F4000816128210548FFF771FA606DFFF7EFF80E
:101F500010BD0000003001400010024000040048A5
:101F600070B586B0064614216846FEF719F91B497C
:101F70003068884230D11A498A69801402438A61E4
:101F80008A69024005924A69800102434A614969AF
:101F90000025014005912820009002200190032097
:101FA00003900295694604950E48FFF7B7FA0F4C67
:101FB0000D4820601020A560606025616561A56105
:101FC0008020E561E0602046FFF724F9002801D079
:101FD000FEF7EDFC7465666206B070BD003001402E
:101FE000001002400004004830000240C4010020FC
:101FF000FFB5054604464035287F002781B01646C8
:10200000012809D001202877FFF738FB0090687F6E
:10201000012804D00227A5E0022005B0F0BD0298F7
:10202000002870D0002E6ED0032068770020206634
:102030000299A163A687E6872064A880E8802065CE
:10204000E0640121A068C903884205D120680168C5
:10205000012292031143016020680168490603D4FC
:1020600001684022114301600720E16800028142BB
:10207000606826D9002801D0012E1ED1A06B2168EE
:102080000088C86006E020688168890709D5A16BCF
:102090000988C160A06B801CA063E08F401EE087B0
:1020A0000BE0FFF7EBFA0099411A0498814202D342
:1020B000401C02D04CE000284AD0E08F0028E2D13A
:1020C00039E0002801D0012E32D1E08F0128A06B29
:1020D00003D921680088C8600FE021680078087380
:1020E00014E0E08724E020688168890714D5E18F37
:1020F0000129A16B08D90988C160A06B801CA0636D
:10210000E08F801EEDE72CE009780173A06B401C86
:10211000A063E08F401EE4E7FFF7B0FA0099411A90
:102120000498814202D3401C02D011E000280FD055
:10213000E08F0028D7D12046009A049900F00CFFC8
:10214000002801D020202066A068002802D005E0E9
:10215000032707E02068C16880680090206E00288F
:1021600000D001270120687700202877384654E7FF
:1021700070477047F0B502462032137F012B1ED006
:10218000012515770223537706687468B3687027B2
:10219000BC430F682743776000680A4CA04205D013
:1021A000094CA04202D0094CA04204D180244968C5
:1021B000A34319438160557700201077F0BD0220BA
:1021C000F0BD0000002C0140000400400040014030
:1021D00010B5022104462034617701680A6A084B71
:1021E0001A4207D10A6A9B101A4203D10A685208A0
:1021F00052000A6000F020F800206077207710BDC0
:102200001111000070B5040005D025462035687F07
:10221000002802D006E0012070BD0020287720466B
:1022200000F02AF802206877211D206801F07CFB6D
:1022300001206877002070BD10B50C4A01680C4879
:10224000914208D18169C214914381610D20FFF749
:1022500083FA0E2007E0074A914206D1C1690222A3
:102260009143C1611020FFF777FA10BD002C0140A7
:10227000001002400004004008B5174A01681748E2
:10228000914215D18269C1140A438261806900229A
:102290000840009011460D20FFF77AFA0D20FFF755
:1022A0006BFA002211460E20FFF772FA0E200FE0A3
:1022B0000B4A91420ED1C26902210A43C261C06930
:1022C00000220840009011461020FFF761FA10200C
:1022D000FFF752FA08BD0000002C01400010024038
:1022E000000400400268D36801210B43D3600068FA
:1022F00082685207520F062A02D002680A4302601F
:10230000002070470168CA6852085200CA6000681D
:10231000016A064A114207D1016A9210114203D1A3
:102320000168490849000160002070471111000050
:10233000F8B5054604462035287F012817D0012628
:102340002E7702206877226890687727FF23B843AA
:102350001B02984390600A68502A31D00EDC202A74
:102360004BD006DC002A48D0102A3AD145E00220A2
:10237000F8BD302A41D0402A33D136E0602A27D038
:10238000702A12D001200003121A2AD0824228D1CA
:10239000CB684A688968206801F00AFB2068816878
:1023A00001229203114381601BE0CB684A6889686F
:1023B000206801F0FDFA216888683843886010E0E1
:1023C000CA684968206801F006FB5021206806E0D1
:1023D000CA684968206801F00FFB6021206801F09D
:1023E000F2FA6E7700202877F8BDCA68496820683D
:1023F00001F0F1FA40212068F1E711462068EEE78C
:10240000704770B50446006801690025C943890713
:10241000002915DBC168C943890711D4E91E016190
:1024200001202077206880698007204602D0FFF7CE
:10243000E7FF04E000F096F8204600F094F82577D6
:1024400020680169C943490717D4C168C9434907CE
:1024500013D40421C94301610220207720688069D8
:102460008005800F204602D0FFF7CAFF04E000F08D
:1024700079F8204600F077F8257720680169C9438C
:10248000090716D4C168C943090712D40821C943F2
:102490000161042020772068C0698007204602D0AF
:1024A000FFF7AEFF04E000F05DF8204600F05BF8B7
:1024B000257720680169C943C90617D4C168C94393
:1024C000C90613D41021C943016108202077206870
:1024D000C0698005800F204602D0FFF791FF04E01D
:1024E00000F040F8204600F03EF8257720680169AA
:1024F000C943C90708D1C168C943C90704D1891EA6
:102500000161204600F030F820680169C9430906DE
:1025100009D4C168C943090605D48021C9430161B2
:102520002046FFF725FE20680169C943490609D402
:10253000C168C943490605D44021C9430161204609
:1025400000F01CF820680169C943890609D4C168F4
:10255000C943890605D42021C94301612046FFF7FC
:1025600008FE70BD7047704710B500680249884288
:1025700001D1FFF789F810BD00100040704770B519
:10258000040017D0242060672068016849084900CA
:10259000016020680025056020684560206885602E
:1025A000204600F0AFF8E5676567A56760342574DD
:1025B000002070BD012070BD70470000F8B50268B2
:1025C0000446D069116893684C4D06462E4020257C
:1025D000002E68D0DE07F60FFF2721370F40374364
:1025E00075D0C70706D0CF0504D501271762E26F63
:1025F0003A43E267820708D5DA0706D02768022245
:102600003A62E26F04273A43E267420708D5DA07E5
:1026100006D0236804221A62E26F02231A43E2679B
:10262000020709D50A462A40324305D0236808220A
:102630001A62E36F1343E367020508D54A0106D522
:1026400001222368D2021A62E26F2A43E267E26F34
:10265000002A30D0800606D5880604D5216E0029D0
:1026600001D020468847E06F21688968490602D476
:102670002821084224D0204601F04EFA20688168C3
:10268000490619D58168402291438160E06E002897
:1026900012D01B494163E06EFEF725FD00280AD0E9
:1026A000E06E416B06E0830611D58B060FD5216ED7
:1026B00012E020468847F8BD2046FFF77DFFF8BDB1
:1026C0002046FFF779FF0020E067F8BDFFE703062B
:1026D00005D50B0603D5616E0029EAD1F5E7400662
:1026E000F3D54806F1D5116820464023994311607F
:1026F00065670021616600F076F8E6E70F080000E4
:10270000053B000810B50068084988420CD108480C
:1027100081690122920391438161C0210548FEF73E
:1027200085FE1B20FFF718F810BD0000003801409F
:102730000010024000040048F0B5836F202B49D1FF
:1027400000290AD0002A08D08568DC01A54206D1FC
:102750000369002B03D1CB0701D00120F0BD034654
:1027600060331E7C012E35D001271F744165014660
:1027700040310A834A830022FF260266A54204D123
:102780000569002D22D1144D1EE0002D18D08A833A
:10279000C2672221816701688D683D438D60816831
:1027A000A14202D10169002912D00C4901661A74B4
:1027B00000680168FF222132114301600020F0BD52
:1027C0000569002D02D07F258D83E1E78E83DFE749
:1027D0000349EBE70220F0BDFF010000D93B0008F0
:1027E000813B00087047704704F096FDFEE710B586
:1027F00000F06CF800F090FB00F07CF8022001F093
:102800005EFF00F06DF8022001F059FF00F05EF865
:1028100010BD000010B586B014216846FDF7C0FC5D
:102820000120C0020090112001900020029003209E
:10283000094C039069462046FEF770FE0120800295
:10284000009069462046FEF769FE00F053F800F05C
:102850003DF806B010BD00000004004810B500F0BF
:1028600035F800F059FB00F04FF8022001F027FF87
:1028700000F036F8022001F022FF00F027F810BD2A
:1028800070B50646002400F02FFB002500F01EF86E
:10289000022001F014FF00F023F86006040E00F09F
:1028A00051FB002801D0641CE4B2012001F007FFB5
:1028B0006D1CEDB2082DE9D3002E03D0FFF797FF72
:1028C000204670BDFFF7CAFFFAE7000010B50121EE
:1028D000002289020148FEF7CAFE10BD000400482C
:1028E00010B5012291020248FEF7C1FE10BD0000A2
:1028F0000004004810B501210022C9020148FEF77A
:10290000B6FE10BD0004004810B50122D1020248F5
:10291000FEF7ADFE10BD00000004004870B504468F
:1029200000F0FAFAFFF7D2FF0025200602D5FFF7E4
:10293000EBFF01E0FFF7DEFF6006040E022001F06E
:10294000BEFEFFF7CDFF022001F0B9FEFFF7BEFF8C
:10295000022001F0B4FE6D1CEDB2082DE5D370BD70
:1029600010B500F0D9FAFFF7CFFFFFF7B9FF042049
:1029700001F0A5FEFFF7BEFF042001F0A0FEFFF767
:10298000A5FF10BD10B500F0C7FAFFF79FFFFFF7D6
:10299000B1FF042001F093FEFFF7A2FFFFF7B4FFA1
:1029A000042001F08CFE10BD10B5002400F09CFA4C
:1029B000FFF7AAFF012001F082FEFFF791FF01203F
:1029C00001F07DFE07E0641CE4B2FA2C03D9FFF7A6
:1029D000D9FF012010BD00F0B5FA0028F3D1FFF7B0
:1029E00075FF002010BD0000FEB5002127480091B2
:1029F00001910291244A41600260034601240425AA
:102A00000C33816032C3017641768476FF22C17631
:102A1000C232C2610162014620310C718462FEF74C
:102A200081F901940226072400966946174802940A
:102A3000FEF7ECF803276946144800970196FEF765
:102A4000E5F86946114801970095FEF7DFF805267D
:102A500069460E4800960195FEF7D8F869460B487E
:102A600001960094FEF7D2F808200090062001900D
:102A700069460648FEF7CAF80920009069460194A5
:102A80000248FEF7C3F8FEBD002401409C00002070
:102A9000F0B587B014216846FDF782FB4E484269C5
:102AA0000121C9040A43426142690A400592426910
:102AB000C9000A43426142690A40059242694911CC
:102AC0000A43426142690A400592426949000A4349
:102AD000426140694C1108400590012221463F485F
:102AE000FEF7C5FD012211463D48FEF7C0FD01225B
:102AF00002213B48FEF7BBFD3A4E012231463A48DF
:102B0000FEF7B5FDA700002239463748FEF7AFFDB6
:102B10004121092001224902C006FEF7A8FD052136
:102B2000092000228902C006FEF7A1FD00940124BD
:102B3000032501946946294803950294FEF7EEFCAB
:102B4000019400956946264803950294FEF7E6FC39
:102B5000019469462448009603950294FEF7DEFC32
:102B6000E002002600906946019602941E48FEF796
:102B7000D5FC00970227019469461B4802970395EC
:102B8000FEF7CCFC092000020090694601960294F1
:102B9000C004FEF7C3FC2803009069461248FEF704
:102BA000BDFCA003009069460F48FEF7B7FC492022
:102BB0004002009001946946039502948004FEF758
:102BC000ADFCA0026A46039591C209206946C00681
:102BD000FEF7A4FC07B0F0BD00100240000800485A
:102BE00000140048140700000004004810B5104805
:102BF0000E490160FF21053141600121C903816057
:102C000007210902C16002210161012141614902DC
:102C100081610021C1610162416281620722016319
:102C2000C2624163FFF726F910BD00000030014089
:102C3000DC00002010B586B00024009401940294BA
:102C4000039404940594FEF7E9FE1049FDF74AFA4F
:102C500010490F4A8C60401E0A6048600C61632076
:102C60004C61C860802088610846FFF7CBFA0120DC
:102C70000003009069460748FFF75AFB049404A933
:102C800004480594FFF776FA06B010BD40420F00E5
:102C9000002C01404001002070B50A4DFF23EE1FBB
:102CA0001A46F93E05E0047854402A5D5A40335DE7
:102CB000401C0C46491E89B2002CF4D11802104366
:102CC00070BD000088DB0008F8B54B4C0526214696
:102CD000277848788A78097902253B0001F051F875
:102CE00006041127455E5A88002801D00020607034
:102CF000002A05D1C80703D048084000207126707B
:102D0000F8BD012809D00120607001432171A07035
:102D1000084002F097F804F083F8A0780028EFD17B
:102D2000257001F00FFA002001F0A0FAF8BDC907E4
:102D300009D0022803D003F05DFA01F087FC65702A
:102D4000FDF7AEFEF8BD01F083FA0028FAD00420AA
:102D50002070207A012803D0032801D06570F8BDC7
:102D60006670002002F08AFDF8BD03280BD0032016
:102D700060700F20A070002002F052FF02F03EFCB5
:102D80001E48E082F8BDE08A0028FBD12570E27081
:102D9000A070F8BD00F086FB6670F8BD052815D15F
:102DA0001E2001F0AFF9164F102138780843387013
:102DB00003F020FA2079C00702D001F047FC01E0BF
:102DC00001F03AFC387880210843387004206070A4
:102DD00001F03EFA0028E0D12079C00703D0257029
:102DE0001920608300E026700020E070A570F8BD17
:102DF00001202070F8BD000008030020102700000B
:102E0000220000207047704710B5012000F05AF8EA
:102E1000002000F03DF8FF211A2000F01EF810BD40
:102E200010B50446FFF79CFDE820FFF777FDFFF79C
:102E3000BBFDE0B2FFF772FDFFF7B6FDFFF790FDB7
:102E4000E920FFF76BFDFFF7AFFD0020FFF718FD4E
:102E50000446FFF797FD204610BD70B50D460446A9
:102E6000FFF77EFDE820FFF759FDFFF79DFDE0B27B
:102E7000FFF754FDFFF798FD2846FFF74FFDFFF7DA
:102E800093FDFFF77FFD0A2001F00CFC70BD0000F0
:102E900070B505460C20FFF7C3FF094C2070217860
:102EA000002D02D02020014301E0DF2001400C2052
:102EB000FFF7D3FF0C20FFF7B3FF207070BD0000B9
:102EC0005E00002010B504460C20FFF7A9FF002C7F
:102ED00002D0BF21084001E04021084301460C20F8
:102EE000FFF7BBFF10BD000000B585B01421684698
:102EF000FDF756F90120C00200900020019001204A
:102F000002900320039069460248FEF707FB05B0D4
:102F100000BD00000004004800B585B014216846DB
:102F2000FDF73EF90120C0020090012001900290BF
:102F30000320039069460248FEF7F0FA05B000BD91
:102F40000004004810B50121C9020248FEF78AFBBF
:102F500010BD000000040048F8B50F460B461546AA
:102F60000092032104460022C90200F01BF820262B
:102F7000002812D13B46002280212046009500F017
:102F800059F8002809D103213B4600224902204676
:102F9000009500F007F8002803D0206E304320662B
:102FA0000320F8BDF8B51D4617460E46044610E04E
:102FB000032149028E4202D1002F00D1007B681C00
:102FC00007D0FEF75BFB0699401AA84208D2002DF5
:102FD00006D0206881683140B942E9D10020F8BDAF
:102FE00020684168E022914341606068C11FFD395B
:102FF0000CD10121A068C903884202D0491188423E
:1030000004D1206801684022914301600120A16A37
:103010004003814207D121680A6882430A6021681F
:103020000A6802430A60012040346077002020775C
:103030000320F8BDF8B51D4617460E46044609E0C4
:10304000681C07D0FEF71AFB0699401AA8420BD25B
:10305000002D09D020688168304688432ED000209A
:10306000B842EDD10020F8BD20684168E0229143CC
:1030700041606068C11FFD390CD10121A068C903FE
:10308000884202D04911884204D120680168402258
:10309000914301600120A16A4003814207D1216868
:1030A0000A6882430A6021680A6802430A600120B4
:1030B00040346077002020770320F8BD0120CFE75F
:1030C00030B5002305E05D0004885B1C4C539BB2C7
:1030D000801C9342F7D330BDF0B585B0002516466D
:1030E0000F4604460395FEF78DF90120029003A9CF
:1030F000009501946846FEF7EDF809E068003A5A39
:10310000002321460120FEF73FF96D1CADB2A41C3F
:10311000B542F3D3FEF72EF905B0F0BD70470000BD
:10312000F8B5CB4C2079C1077ED0217804297BD01B
:10313000032979D0E278A178C64F8A420BD0E1709A
:103140003978012917D0C449A18210210843207180
:10315000012002F065FDA078C04E0025030000F0BC
:1031600010FE120E6B0C40BEC4AFB8A9A3CDD3D9CC
:10317000DFF43F4DFA3FBA49E6E7A570E5702079E4
:10318000C00601D502F0CEFB2079800709D401F0FA
:103190005FF8002805D100F0E3FFE08501F026F894
:1031A0002082E08D0A21FCF79DFF02F047FCA84831
:1031B00040308179002903D08571207C03F0DCF850
:1031C000A34E48367068008802F0B2FD207B02F002
:1031D000CDFE608A02F084FB3068008802F07CFD3E
:1031E00002E12079C00673D501230A222D219DA07A
:1031F00002F0B4F9608A03F0FBF8F5E02079C0062C
:10320000F1D5012323220F2198A002F0A7F99948B4
:10321000FDF7B8FB3079002809D0012323226E2165
:1032200095A002F09BF900E010E19448DAE0012358
:1032300023226E2192A0F4E72079C006D3D53878F6
:1032400001280FD08B48FDF79DFB3079002826D050
:103250003721232002F004FD8848FDF793FB02F09C
:103260001BFEC1E002F018FE7D27FF00384604F087
:103270006BF88048FDF786FB307900280AD03721AB
:10328000232002F0EDFC7D48FDF77CFB384604F07E
:103290005BF8A9E03721232002F09AFEF3E73721FB
:1032A000232002F095FED7E72079C00610D502F062
:1032B0002FFE99E02079C0060AD502F0DDFC93E0EC
:1032C0002079C00604D502F0FBFB03F0A9FD8BE0DA
:1032D0007FE02079C0067CD502F0E6FC84E020790E
:1032E000C00676D502F0D2FB7EE02079C0067ED5FE
:1032F00002F0BCFD03F094FD658275E02079C00604
:1033000075D502F097FC6FE02079C0066FD502F00A
:1033100049FE69E02079C00669D502F0F1FC63E05E
:103320002079C00663D55348FDF72CFB307900287F
:1033300004D02321084602F093FC74E723210846B9
:1033400002F046FE6FE706E0FFE72079C0064ED5A3
:1033500002F062FD48E02079C00648D54548FDF7F7
:1033600011FB307900281ED00521232002F078FCC3
:10337000424E3046FDF706FB012319221E2141A0D3
:1033800002F0ECF8FF20373003F0A8F8B0420FD17C
:103390001F20C002FDF7F6FA0123372246213CA088
:1033A00002F0DCF81DE00521232002F011FEDFE72A
:1033B0003F204001FDF7E6FA012337223C2136A0E9
:1033C00002F0CCF8364F0520388303F037FB7883C2
:1033D00000E00CE003F032FBB8830F213846FDF724
:1033E000F3FB3046FDF7CEFAA07800282AD0A08A59
:1033F000002815D001F080FE002807D0A078012811
:1034000020D0A08A322801D23220A082A0780A28B7
:1034100003D00B2801D00C2814D101F06DFE0EE072
:1034200001F060FE0028A07804D00D2805D00E28F9
:1034300003D006E0012804D004E001F045FE002896
:1034400000D0A5702079EF2108402071F8BD000060
:103450000803002010000020EE0200000000002001
:10346000DC05000041544F20524553004D4F444568
:1034700020495300FF0700004E455700FFFF0000A2
:103480004F4C440043616C6962726174696F6E00F5
:103490004661696C0000000053756365737300003A
:1034A00048050020F8B5304C0020A0702F4E207247
:1034B0003078002802D0002000F064F900F0C8FE47
:1034C0000427002804D0642001F0ECF82770F8BD30
:1034D0002079C007C00F03F019FF2079C007C00F83
:1034E00003F0BCFD00F0F4FF0225002801D001200C
:1034F0000CE000F0ADFE002807D025722079C0074F
:1035000010D025701920608316E0032020722570EA
:103510002079C1070DD0102108432071207A03289B
:1035200002D003E0277007E003F07AFC2079C0079F
:1035300002D1207A022803D1002002F09FF9A57061
:1035400000F082FA30780128207909D0C007BED176
:1035500002F01CF80028BAD1FF20F5306081F8BDD8
:10356000082108432071F8BD080300201000002046
:10357000704770B594B030216846FCF711FE002406
:1035800001250F9412200595009010200E941094A0
:103590001394049006900D9405201294C0040C948A
:1035A000039502260A901194089609940B94684694
:1035B000FEF784FA07200C900E9401210D960F94CB
:1035C0000CA8FEF78BF910A810951294FEF712F9CB
:1035D00014B070BD7047000010B500F00DF805483C
:1035E000407A03F019FD782003F014FC00F084F811
:1035F00010BD000008030020F0B52248012303702D
:10360000002141708370C170C17101720279FD2483
:103610001A432240FB252A40F72632408F273A40A2
:103620005206520E027142799A4322402A400446C1
:10363000403432402025A1802A434271FF22F532D6
:1036400042811922D20142828183C1830184418453
:10365000018641720173C18101820B4A82824383D8
:10366000C1848186C186018766224287421911770B
:103670005177064AC287218005486180017005485C
:103680000170F0BD08030020DC050000B80B00004D
:10369000040000201000002010B500F015F80949C2
:1036A0000020420082181206D20D521853889288C8
:1036B000934201D0012010BD401CC0B20528F0D3B8
:1036C000002010BD4805002010B501F05FFF074C39
:1036D000A080074841896181C0892082054800781F
:1036E000E08203F0ABF9A08310BD00004805002084
:1036F000080300201000002010B5144A0F211448C0
:10370000FDF758FA0F211248FDF74AFA104C2088AD
:10371000012802D1A07801F06BFFE1880D48022951
:1037200001D121894181A189032901D1E189C18187
:10373000608A042802D10849207D0870208B052862
:1037400002D1608B03F066FB10BD0000FFFF00009C
:1037500048050020080300201000002010B507488D
:10376000322141810021C181017301F0B5FE04497C
:103770000120087000F006F810BD000008030020CA
:103780001000002010B5002803D1FFF785FF0028A6
:1037900021D0114C0120208001F0F8FE6080A08033
:1037A0000220E0800D484189218161810321A181AE
:1037B000C089E08120820420608209480078A082CC
:1037C000E0820520208303F039F96083A0830F2174
:1037D0002046FDF7F9F910BD480500200803002038
:1037E00010000020F8B5374C2079800724D5607987
:1037F000400721D5002003F05DF920462030017FED
:103800000226491CC9B200250177642901D9057730
:10381000E671207980060FD500F03AFBA086618F13
:10382000FB27884209D903F0A9F9207940210843F0
:103830002071607938406071F8BDE079002805D0CA
:10384000012801D0022823D0E671F8BD00F034FB36
:1038500020861D488178002917D08570002002F04D
:1038600089FE1848218E628E403091420CD98188A1
:10387000491C89B28180022907D903F07FF9607958
:1038800030433840607100E085800120E071F8BD70
:1038900000F008FB23214901E08688420FD20B4942
:1038A00080260978012902D10949884207D203F00C
:1038B00065F9207930432071607938406071E57195
:1038C000F8BD000008030020480000201000002080
:1038D000BD02000010B50348FEF793FDFFF782FF1D
:1038E00010BD00004001002010B50248FEF789FD20
:1038F00010BD00004001002010B50248FEF781FD18
:1039000010BD00000802002010B50648FEF779FD42
:1039100000F0EEF800F0BCF800F01AFE01F0A8FA92
:1039200010BD0000C8020020F0B502681A4B1B4C05
:10393000984201D0A04203D17025AA434D682A4382
:10394000174D184E184F98420AD0A04208D0174C75
:10395000A04205D0A84203D0B04201D0B84205D160
:103960001446032212029443CA6822438024A243CD
:103970004C69224302608A68C2620A688262984285
:1039800005D0A84203D0B04201D0B84201D10969A4
:10399000016301214161F0BD002C014000040040A1
:1039A0000040014000440140004801400020004028
:1039B00030B58468FF252D021B021343AC430B4333
:1039C0002343836030BD826870239A430A430721F2
:1039D0000A438260704730B5036A046A6408640071
:1039E00004628469F025AC43120122430A24A343F4
:1039F0000B438261036230BD30B5036A1024A343D8
:103A000003628469036A0F252D031203AC4322432A
:103A1000A024A343090119438261016230BD000063
:103A200010B5FFF751F907480078012801D000F0E0
:103A300083FB03F033FD03F0E3FC03F08FFC03F0A2
:103A400051FD10BD0803002010B509480121018077
:103A500064227D234280DB0083800A24C4800181AC
:103A600042818381C4810021018203F0A1FD10BD48
:103A7000C8050020054A410088180389002B01D0A1
:103A800000207047515A018101207047C80500206D
:103A900015480189002901D0491E01814189002969
:103AA00001D0491E41818189002901D0491E8181AF
:103AB000C189002901D0491EC181018A002901D094
:103AC000491E01820948018B002901D0491E01834A
:103AD000818A002901D0491E8182C18A002901D032
:103AE000491EC18270470000C8050020080300205D
:103AF00003480168002902D00168491E016070472F
:103B00005400002010B5406A0022014640314A832B
:103B10004A82FEF751FD10BD01680A68FF23213378
:103B20009A430A6001688A68520852008A6020211C
:103B3000816700210166704710B50F4C0522A11D59
:103B40000E48FEF7F9FD002801D0012010BD0A49FA
:103B50001C39888A401C88820321A01DFFF79CF82D
:103B6000A081A17A627A09021143E181884201D0E1
:103B7000022010BD002010BDF805002048020020E2
:103B800010B5014640318B8B846F0268222C04D023
:103B9000906908210843906110BD928C446D1A40D1
:103BA0002280426D921C42654A8B521E4A83498B89
:103BB0000029F1D101680A68FF2321339A430A6082
:103BC00001688A68520852008A60202181670021BA
:103BD0000166FEF707FE10BD10B5014640318B8B24
:103BE000846F0268222C04D09069082108439061F8
:103BF00010BD928C1A40436D1A70426D521C426582
:103C00004A8B521E4A83498B0029F1D101680A6808
:103C1000FF2321339A430A6001688A6852085200E0
:103C20008A602021816700210166FEF7DBFD10BD5F
:103C30000148807870470000DC05002010B510486E
:103C4000007880071AD50E48401EC078002815D08D
:103C50000B48401E0078000710D50A48018900294A
:103C60000CD00189491E01810189002906D1FF215B
:103C7000F53101810121017301F092F910BD0000BD
:103C800083000020DC0500200948818800290DD030
:103C90008188491E81808088002807D105480078E6
:103CA000C00603D503490920491E887070470000EB
:103CB000DC050020830000200249088100200873F1
:103CC00070470000DC050020014988807047000033
:103CD000DC050020044908800888002801D0002065
:103CE00000E0012088707047DC050020074801884B
:103CF000002907D00188491E01800188002902D0CF
:103D00000021817070470121FBE70000DC050020E5
:103D100010B50348FEF752FC01F048F910BD000051
:103D2000480200202021020C01D010211046020A76
:103D300001D010460839020901D01046091F820837
:103D400001D01046891E420801D0881E7047081A0B
:103D50007047F8B5040C8BB2264682B25E430D0C58
:103D60001046370C58433604801900217941164615
:103D70006E43370C36048019794126466E43891903
:103D8000F8BD30B47446641E2578641CAB4200D282
:103D90001D46635D5B00E31830BC18478307FF22B4
:103DA000DB0E9A408907090E9940002808DB83083A
:103DB00009489B001B181868904308431860704717
:103DC0000007000F0838830804489B001B18D869B7
:103DD00090430843D861704700E400E000ED00E044
:103DE00002E008C8121F08C1002AFAD170477047C4
:103DF000002001E001C1121F002AFBD17047000022
:103E000001490860704700009800002000B585B0A7
:103E100014216846FCF7C4F90120400200901120EB
:103E20000190022002900320039069460248FDF7AA
:103E300075FB05B000BD00000004004810B5062069
:103E400000F006F80149088010BD0000D2040020EF
:103E500038B50021084B6A4640000E244C43E41854
:103E6000245A4D00491CC9B254530229F5D30221EA
:103E7000104603F08DF838BDB604002010B50520BB
:103E8000FFF7E6FF0149488010BD0000D204002082
:103E900010B50320FFF7DCFF0149088110BD0000C9
:103EA000D204002010B50120FFF7D2FF014948815C
:103EB00010BD0000D204002010B50220FFF7C8FF9B
:103EC0000149C88010BD0000D204002070B51C213B
:103ED0000C48FCF765F90E220A490B48FDF73CF83F
:103EE000002801D0FCF763FD0122084D5402214651
:103EF0002846FDF7BCFB012221462846FDF7B7FB0B
:103F000070BD0000B60400209C00002000040048A2
:103F100070B50124094D6402002221462846FDF7B0
:103F2000A6FB002221462846FDF7A1FB0448FDF729
:103F300063F80348FDF77FF870BD000000040048F7
:103F40009C000020F8B533480178491CC9B20170C3
:103F500002290FD30026067000F07AF9002809D054
:103F60002D4C01202546A071403D288A142802D2FC
:103F7000401C2882F8BD00F0F3F8E88500F036F91F
:103F8000264F2749288214281FD3EA8D25488242CC
:103F90000BD96088884206D20A3080B2608088429D
:103FA00001D300F085F82780F8BD2088B842FBD205
:103FB0001C4932398A4201D30A3000E0401C20807B
:103FC0001320288200F090F8F8BDE88D7D22520180
:103FD000904218D960880E46B04206D2401C80B28A
:103FE0006080B04201D100F063F80E49E88D82395B
:103FF0008842E9D22088B84202D26088B042E3D336
:1040000000F086F8F8BD0749C8398842FAD26680C0
:104010002680F8BD5800002048030020DC05000081
:104020009411000036100000F0B585B014216846E8
:10403000FCF7B6F80124E40200200225032601AAB9
:10404000009461C20A4F69463846FDF767FA0022BC
:1040500021463846FDF70BFB60100090112001AAA5
:1040600061C269463846FDF759FA05B0F0BD000057
:104070000004004806484179002905D04179491ECD
:1040800041714079002801D000207047012070471D
:104090005800002010B5012291020348FDF7E7FA0D
:1040A00002490020C87010BD0004004858000020DC
:1040B00010B5012291020348FDF7D9FA0249012007
:1040C000087110BD000400485800002010B50122FE
:1040D00091020348FDF7CBFA02480021418010BD50
:1040E000000400484803002010B500F0B1F8002893
:1040F00005D00121002289020148FDF7B8FA10BD60
:104100000004004801494871704700005800002031
:1041100010B50121002289020448FDF7A8FA0449DC
:104120000020088048800349087110BD0004004841
:10413000480300205800002010B500F069F800F096
:1041400087F810BD10B5FFF779FE044CE08400F04D
:1041500007F8E08500F04AF8208210BD080300202F
:1041600038B500F01FF80D4A00280D4CD08C09D04E
:10417000FCF76EF92146FCF777F8FCF77FF9694602
:10418000503008E0FCF764F92146FCF76DF8FCF7C5
:1041900075F9694682300880088838BD0803002018
:1041A0000080BB3F10B50121C9020648FDF75AFA4D
:1041B000002803D104480079002801D0002010BD58
:1041C000012010BD000400485800002006498878EE
:1041D000002805D0401E0006000E887001D0012086
:1041E00070470220704700005800002010B50021E1
:1041F0000246064B08464C001C5B944200D8481C03
:10420000491CC9B21429F6D310BD000060DA0008B9
:1042100010B501210920C902C006FDF723FA0B4998
:104220000028C87809D0002805D00020C8700520D3
:104230008870FFF73DFF002010BD002803D101204A
:10424000C870FFF765FF012010BD00005800002076
:1042500010B501210920C902C006FDF703FA0028A4
:1042600001D0002010BD012010BD00000149887060
:10427000704700005800002000B587B01421684640
:10428000FBF78EFF0A484269012189040A43426113
:10429000406908400590C0200090002001900290E5
:1042A0000320039069460348FDF738F907B000BDC5
:1042B000001002400004004870B506460D4C31461F
:1042C000A08B02F069FA0C4D3146E880E08B02F0D9
:1042D00063FA2881208C314602F05EFA6881608C96
:1042E000314602F059FAA881A08C314602F054FA06
:1042F000E88170BD080300203405002010B5024895
:1043000000F04CF810BD00000005002010B5FF21A2
:1043100009200131C006FDF7A5F9002801D00020D1
:1043200010BD012010BD000070B586B01421684694
:10433000FBF736FF0124164E640300222146304667
:10434000FDF795F9009403201125022403900195AF
:10435000694602943046FDF7E1F8009469460D483D
:1043600001950294FDF7DAF8032000030090002085
:104370000190694602940848FDF7D0F8E0010090EA
:1043800009206946C006FDF7C9F806B070BD0000F7
:1043900000080048001400480004004870B50446B6
:1043A00000780025022800D12570A0688047FF21F1
:1043B000F53100281AD06088012802D92278002A15
:1043C0000ED088420BD92078012808D10320207014
:1043D000608819214901884201D300F069FF70BD4E
:1043E000E068804701202070A58070BDA088322839
:1043F000FBD92078012802D0032803D003E0022053
:10440000207000E02570A088884201D900F050FF9C
:10441000658070BD10B50248FFF7C0FF10BD0000F9
:10442000F004002010B5012109030448FDF71AF932
:10443000002801D0002010BD012010BD000400485C
:1044400070B5214C00252078022805D0062803D01D
:10445000052801D0042800D12570012189031B48BB
:10446000FDF700F9002803D0207801280AD00BE0DE
:104470006088012804D92078002801D1012020700B
:10448000A58070BD022020706088FF21193114388A
:10449000884204D8E088052801D2401CE080A0882A
:1044A000C8280ED3E088052801D3062007E0042899
:1044B00002D0032802D003E0052000E00420207091
:1044C000E580658070BD00001005002000040048F4
:1044D00010B5012189030448FDF7C4F8002801D074
:1044E000002010BD012010BD00040048104900202C
:1044F0000870488088800F4A8A600F4ACA6010316D
:104500000870488088800D4A8A600D4ACA60103160
:104510000870488088800B4A8A600B4ACA60103154
:10452000087048808880C88008488860704700000C
:10453000E00400201D4600084D52000825440008F4
:10454000815200080D4300087D520008D144000844
:1045500070B52A4E012149033046FDF783F87D25C9
:104560002749284CED0000282FD08888A84201D286
:10457000401C8880FF2109200131C006FDF772F838
:104580000100214827D08188A94201D2491C81809D
:10459000012109033046FDF765F81949103100285B
:1045A0001FD08888A84201D2401C8880012189033D
:1045B0003046FDF757F814491031002817D0888885
:1045C000A84201D2401C888070BD4888A042D1D842
:1045D000401C4880CEE74188A142D9D8491C41807F
:1045E000D6E74888A042E1D8401C4880DEE74888EA
:1045F000A042E9D8401C488070BD0000000400487B
:10460000E0040020881300000005002010B50248D7
:10461000FFF7C4FE10BD0000E004002010B501212A
:1046200049030448FDF71EF8002801D0002010BD02
:10463000012010BD0004004810B5012251030248BA
:10464000FDF715F810BD00000008004810B5012165
:10465000002249030148FDF70AF810BD0008004890
:1046600010B5002202210448FDF701F80122510390
:104670000248FCF7FCFF10BD001400480008004889
:1046800010B5012202210548FCF7F1FF01210022AB
:1046900049030348FCF7EBFF10BD0000001400487D
:1046A0000008004810B57D240346E40004E02046DD
:1046B00000F005F85B1E9BB2002BF8D110BD002264
:1046C00006E00021491C89B20829FBD3521C92B292
:1046D0008242F6D370470000F8B509ACE0CC094C33
:1046E0002780668020716171A271E371E56008988E
:1046F000A0720798607206982072204600F060FA57
:10470000F8BD00005C030020F8B509ACE0CC094C12
:104710002780668020716171A271E371E56008985D
:10472000A0720798607206982072204600F048FA3E
:10473000F8BD00005C030020F0B589B06421FBF7F0
:10474000D1FC044608460A21FBF7CCFC641C069009
:104750000791E0B20027214E214D02A9E1C10520B9
:10476000092401904C234422812100947D20FFF7ED
:10477000B3FF1C4803AAC1C201210320029101908A
:104780004C234422842100948220FFF7A5FF069841
:1047900002A9401CC0B2E1C1052001904C23442273
:1047A000892100948520FFF797FF07990094491C01
:1047B000C8B202900520019003ACE0C44C2344220F
:1047C00091218D20FFF788FF0748009008230622DB
:1047D0004521942000F094FD09B0F0BDFFFF0000DA
:1047E000F0D9000854DA00085CAA000808B510489F
:1047F0000090202306221421292000F081FD0D487D
:104800000090202309221421742000F079FD0A4829
:104810000090042352221421282000F071FD074843
:104820000090042352223221282000F069FD08BDA7
:10483000307D0008B07E0008F0800008A07A0008F3
:1048400070B51D4614464A19521ED3B20219521EA3
:10485000D6B20A46314601F007FD002633463046FF
:104860000C4905E04204120C8E548A185370401C07
:10487000A042F7D301F028FD6600002404E0314691
:10488000044801F0EDFD641CAC42F8D301F0B2FB2A
:1048900070BD00006C030020F0B58DB02C2269467D
:1048A0000A7625220A77142208A90A7033220A718F
:1048B0000D220A727D21414CC900FBF713FC08460A
:1048C0006421FBF70FFC064608460A21FBF70AFCA9
:1048D0000B910C906946087E08A9097A4118684630
:1048E0000177701CC0B202900E200025344F059550
:1048F0002026019003970494009608A80379027873
:104900006846017F007EFFF7FFFE6846017F491D74
:104910000176017E08A8007A0918684601770C988C
:104920000595401CC0B202900E200190039704949C
:10493000009608A8037902786846017F007EFFF799
:10494000E3FE6846017F491D0176017E091D01775E
:104950001C48012103AA029131C205200190009652
:1049600008A8037902786846017F007EFFF7CCFE35
:104970006846017F491D0176017E08A8007A091862
:10498000684601770B990595491CC8B202900E2024
:10499000019003970494009608A80379027868466A
:1049A000017F007EFFF7B0FE074800900E230A2229
:1049B00028216A2000F0A4FC0DB0F0BDFFFF00002C
:1049C000ACD70008DCD9000814D30008F0B589B0D2
:1049D0006421FBF787FB044608460A21FBF782FBAC
:1049E00007910890022168460176641CE0B2002716
:1049F000274E284D02A9E1C1052409200090019409
:104A00006846007E0A23001DC1B268460222007E6D
:104A1000FFF762FE6846017EC91D0176089802A96B
:104A2000401CC0B2E1C10920009001946846007E9C
:104A30000A23001DC1B268460222007EFFF74CFE29
:104A40006846017EC91D017607990194491CC8B2C8
:104A500002900920009003A9E0C16846007E0A2365
:104A6000001DC1B268460222007EFFF735FE68468F
:104A7000017EC91D0176084800906846007E082323
:104A8000801CC0B20622032100F03AFC09B0F0BD40
:104A9000FFFF0000F0D900081CA90008F0B587B09E
:104AA00064285AD800242E4D2E4F642830D20A2173
:104AB000FBF718FB0E463946401CC0B202AA05940B
:104AC00023C20520092701900A230222842100978E
:104AD0008020FFF701FE2449012002AA059423C289
:104AE000032001900A230222892100978720FFF7E3
:104AF000F3FD1C48761CF1B2039002910520059449
:104B00000A23022290210190049500978C201AE03C
:104B10000220029005940920052600900397049531
:104B20000A230222842101968020FFF7D5FD01206F
:104B30000290059409200090039704950A2302220D
:104B40008C2101968820FFF7C7FD084800900823B4
:104B500006220321942000F0D3FB07B0F0BD000033
:104B6000FFFF0000F0D9000854DA00087CA9000813
:104B7000F8B50746A22452260022334621461046A5
:104B800001F072FB3804050E0C4AFBB20020410410
:104B9000090C55545118401C4B70A042F7D301F03A
:104BA00093FB0024FF2545352946044801F058FCB5
:104BB000641CB442F8D301F01DFAF8BD6C03002068
:104BC000F0B50446C379827941798DB0007901F05E
:104BD0004BFB217A48071DD0C808627A401C50431D
:104BE000A27A521E424390B2019001200490C8085C
:104BF000099060886946020A0A70C0B2079248703C
:104C000006902088020A0A70C0B2059248700025FA
:104C1000089021E0C808627AE1E700270498B840CC
:104C2000C0B200260B900EE0E168684309180198B5
:104C30008019095C0B98884316D00899059801F0F3
:104C400043FC761CF6B2607AB042EDD87F1CFFB20E
:104C5000082FE3D36D1CEDB209988542DDD3207A8D
:104C6000400723D000271CE006990798E7E704983F
:104C7000B840C0B200260B900EE0E1686843091806
:104C800001988019095C0B98884311D00899059800
:104C900001F01AFC761CF6B2607AB042EDD87F1CA7
:104CA000FFB2207A4007400FB842E0D80DB0F0BD07
:104CB00006990798ECE7F8B5069F904213D89942F9
:104CC00011D85D1A141ACEB2641C6D1CD1B2A4B2F4
:104CD000ADB2DBB2C0B2324601F0C6FA6C43204638
:104CE000394600F059F8F8BD70B514460219049E13
:104CF0001D46A02A02D9A022121AD4B24A19D3B250
:104D0000CAB20119C9B2C0B201F0AEFA6C43204672
:104D1000314600F041F870BD7FB50E1A6D46761C25
:104D2000089C2E809E1A761CAE812D886E006D46E2
:104D3000AE8001F099FA01F0C7FA002028810AE05C
:104D400069468988204601F08BFB694688882418CB
:104D50000889401C08816846018980898142EFD317
:104D600001F048F97FBD70B514460A19049E1D462E
:104D7000502A02D95022521AD4B20A19D3B2CAB256
:104D80004119491EC9B2C0B201F06EFA6C43204607
:104D9000314600F001F870BD1CB50C46009001F0E2
:104DA00093FA210A684601714471074C0222234696
:104DB00001A90648FDF71CF90098411E0091F5D2A3
:104DC00001F018F91CBD0000FFFFFF00DC0000200F
:104DD00010B50446FFF744FCFFF7A6FA1848FDF7A4
:104DE000CEFBFFF721F9FFF747FAFEF70DF8FDF7C5
:104DF00011FD01F039FE01F099FB00F03FF920466A
:104E000001F042FCFFF784F8FFF700F801F0ECF83E
:104E100000F048FD00F006FD01F026FE01F086FBE3
:104E200000F02CF9204601F02FFC02F0A9FB02F063
:104E3000B7FB02F0C5FB02F0C3F9FFF757FB10BD4B
:104E40004802002010B5002805D0FFF74FFBFFF700
:104E500017FC00F037FAFFF739F801F0F5FD01F023
:104E60003BFBFFF717F902F0ABF9012010BD000082
:104E700010B505480078C00905D0FEF737FFFEF7EA
:104E800003FFFEF7DBFE10BD83000020F8B53C4CAD
:104E90003C4DA1793C4E04294FD01BDC64270129ED
:104EA00024D0022934D0032913D10020FEF712FFA9
:104EB000F02000F083F8207A0102E0790843208393
:104EC000FBF7C6FA3149FBF7CFF9E0616889401C6E
:104ED0006881F8BD2E480F2940D07F29F9D10121E2
:104EE00031700178FD2211400170F8BD0020FEF7FD
:104EF000F1FE05203070207A0102E0790843FBF7CB
:104F0000A7FA2449FBF7B0F9606112E06F82F8BD9F
:104F10000020FEF7DFFE03203070207A0102E079E6
:104F20000843FBF795FA1949FBF79EF920611A48E7
:104F3000E061688A6428E9D3F8BD0020FEF7CAFE64
:104F4000F02000F03BF8207A0102E0790843FBF7FB
:104F50007FFA1049FBF788F96062B7E70178082209
:104F6000114301700178EF221140017000200B4ABB
:104F700068740221117031780429DDD13070F8BDD8
:104F8000F8050020DC050020860000200AD7A33C9D
:104F900083000020CDCC4C3D0000A04084000020C8
:104FA00010B5842000F00AF8002010BD10B5FEF7FF
:104FB000C3FD002801D1FFF769FF10BD10B5074CF4
:104FC000032160700020A070E070601CFDF764FE9B
:104FD0002071000A607100F003F810BDF805002090
:104FE000F8B5224800214174214A41731170577865
:104FF000FF26803F10212D36322203251D4C3B0019
:10500000FEF7BFFE07050C1717171B171B002278AA
:105010000A432270C6810521417415E023780B43B1
:105020002370017E002901D0C68100E0C281457451
:105030000AE023780B432370F8E72078EF2108403B
:1050400020700020FEF740FEFEF7F2FD0A4900281E
:1050500001D00D7001E0042008702078800703D58E
:10506000FF20F530FEF728FEF8BD0000DC0500202B
:10507000F8050020830000208400002070B586B071
:1050800014216846FBF78CF801250D4CE802032635
:105090006A4671C209206946C006FCF73FFAA803B8
:1050A0006A4671C269460748FCF738FA00220221B5
:1050B0000720FCF76DFB0720FCF75EFB06B070BD18
:1050C00000002110000400480448054900780978D0
:1050D000C84201D10120704700207047E004002041
:1050E000F004002003480078002801D00020704719
:1050F000012070471005002002480078012800D0E8
:105100000020704710050020F0B53C483D4A41881A
:105110003B4856888C46814201D386426CD23A483D
:105120003849077839480A78344945880378002493
:1051300009783748002F05D000290CD0002A03D069
:10514000FF20F0BD002906D001290ED002290ED083
:10515000032910D000E0C480002A28D0012A29D0D9
:10516000022A29D0032A2BD022E00120F0BD002AF8
:1051700042D10220F0BD002A01D1002B02D0012B28
:1051800009D039E0C188491C0904090CC18033D019
:10519000C4800320F0BD418864292DD2491C89B206
:1051A0004180642928D1654526D20420F0BD848041
:1051B0000020F0BD1120F0BD00291DD11220F0BD4E
:1051C000002901D1002B02D0012B09D014E08188E5
:1051D000491C0904090C81800ED084801320F0BD85
:1051E0004188642908D2491C89B24180642903D1CD
:1051F000B54201D21420F0BDF020F0BDF004002033
:10520000B80B0000E004002000050020100500207D
:10521000400000200B480078012810D0042808D056
:10522000052808D0062808D007490020488001201A
:105230007047032070470420704705207047022004
:1052400070470000100500204000002008488188B9
:1052500008488088814209D2FF22F532904205D267
:10526000401A322802DD04490320487070470000CC
:1052700000050020F00400204000002070470000DE
:105280000848818808488088814209D2FF22F53287
:10529000904205D2401A322802DD044906204870A7
:1052A0007047000000050020E004002040000020BE
:1052B00003484178002901D0002141707047000067
:1052C000400000200248002101704170704700003A
:1052D0004000002010B5094800244078002808D07C
:1052E000FFF79CF9002803D0FFF79CF8002800D1B5
:1052F0000F24FFF7DDFF204610BD00004000002016
:1053000030B587B06C460A9D20758018401E207607
:105310002173C818401E2074064800210095019191
:105320000290237C227B217E207DFFF7F5FC07B0D5
:1053300030BD00001D050000F0B50D46811885B098
:10534000491E89B282180B9F0391521E0190E918E1
:1053500092B2491E101A0C9E0A9C89B2EA18029158
:10536000521E214692B2541B002917D00746C2B2E2
:105370000123294600960198FFF7B6FCFAB20123F3
:10538000009602990198FFF7AFFCE2B2012329468B
:1053900000960198FFF7E7FC009616E00646C2B2B9
:1053A0000123294600970198FFF79EFCF2B20123E2
:1053B000009702990198FFF797FCE2B20123294672
:1053C00000970198FFF7CFFC0097E2B2012329462E
:1053D0000398FFF7C8FC05B0F0BD01F0FDFD00200B
:1053E00000F04CFA0120FFF72DFDFEF7F5F8FEF76F
:1053F0002BFBFEF715FBFCE710B51049104C0978A4
:10540000012907D1A17900290DD001290AD161799B
:10541000002907D1024601210948FBF7DFFB20786C
:1054200000F00CF910BD024605480221401DFBF7B3
:10543000D5FB607900F0BEF810BD0000040000202C
:105440001100002070B51F48204C06780D230E2552
:1054500002211D486279012E08D00170002A0BD06C
:10546000012A2CD0022A00D1857070BDA679002EA9
:1054700004D0012EF9D10170817070BD0126A67192
:10548000002A08D00170012A19D0022AF5D18570AE
:10549000FEF764F970BD002000F0C2FB3C20607094
:1054A0001420A0702E21E1702071A2780123617870
:1054B00007A000F053F8207800F0C0F870BD8370AA
:1054C00070BD00000400002008030020110000202F
:1054D0004D4F44450000000002480021C1710121E8
:1054E0000170704711000020F0B51A4C007887B0A9
:1054F0000023E55C854203D05B1C9BB2482BF8D3AC
:105500000820864610208446482B21D2124F114D88
:105510003E78144648350F34C81D002E03D03E890E
:10552000BF88B6B202E0BE883F89B6B25B1CDBB270
:10553000029373460193E3B20395C4B2BFB20596DA
:105540006546C8B204970095D2B22146FFF7C4F869
:1055500007B0F0BDD875000834000020F8B51E462D
:1055600017460C460546287800280DD033463A46A3
:1055700021462846FFF7B8FF0834A4B2002E01D018
:10558000641CA4B26D1CEEE7F8BD00000148007871
:1055900070470000110000200549CA79087882424E
:1055A00004D0002802D0C871012070470020704745
:1055B0001100002010B500280BD001280ED00228C1
:1055C00015D1002000F04AF8002000F0A7F80120D3
:1055D0000BE0012000F042F8002003E0002000F082
:1055E0003DF8012000F09AF8002000F06DF810BDA1
:1055F00001490870704700001100002010B50D4CE3
:105600000020A07160710C480078012808D00020AB
:1056100000F024F8207800F011F82078E07110BD37
:10562000012000F01BF8002000F078F8002000F0C6
:105630004BF8F2E7110000200400002010B500280C
:1056400004D0012000F092F8002003E0002000F0D8
:105650008DF8012000F0B4F810BD0000FEB507463B
:10566000134C3C206070134814250078124E01281A
:10567000A57002D03046FBF785F92E20E070257129
:10568000A278012361780DA0FFF768FF0D48FBF7B2
:1056900079F90020009702960190A078801E81B2CF
:1056A00060782379C01E80B2E278FFF745FEFEBD28
:1056B0001100002004000020FF0700004D4F44456A
:1056C00000000000FFFF00003EB505460F4C6420BF
:1056D00060703420A0703720E07014202071A27810
:1056E000012361780AA0FFF739FF0B4800210095DC
:1056F00001910290A078801E81B260782379C01E4B
:1057000080B2E278FFF718FE3EBD000011000020D5
:105710005245534554000000FF0700003EB50546C2
:105720000E4C142060703421A1704A21E170207168
:10573000A278012361780AA0FFF710FF0A48002130
:10574000009501910290A078801E81B26078237943
:10575000C01E80B2E278FFF7EFFD3EBD11000020D1
:1057600056455253494F4E00FF0700003EB50546CF
:105770000F4C642060703420A0702E20E070142044
:105780002071A278012361780AA0FFF7E7FE0B4899
:105790000021009501910290A078801E81B260786E
:1057A0002379C01E80B2E278FFF7C6FD3EBD00003F
:1057B000110000204155544F00000000FF07000079
:1057C0003EB505460E4C142060703421A170242192
:1057D000E1702071A278012361780AA0FFF7BEFE74
:1057E00009480021009501910290A078801E81B2A5
:1057F00060782379C01E80B2E278FFF79DFD3EBD40
:105800001100002052424100FF070000884201D9E8
:10581000024600E00A46884200D30846101A80B2C9
:105820007047000030B585B014216846FAF7B8FC1F
:10583000114D012204212846FBF719FF0121042004
:105840000191032402910090039469462846FBF7D6
:1058500065FE08200090112001900020029069460A
:1058600003942846FBF75AFE2020009069462846FC
:10587000FBF754FE05B030BD0004004810B5002809
:1058800005D000F01DF80020FBF776F810BD00F001
:10589000BDFCA82000F0BEFB00F012F8012000F0D3
:1058A000BFF9F0E710B5282000F0B2FD102000F09D
:1058B000AFFD0248FCF7C6FA10BD0000DC00002076
:1058C00010B5112000F0A4FD292000F0A1FD002258
:1058D00004210248FBF7CBFE10BD00000004004885
:1058E00070B504460C48844200D90C4C0A2120466D
:1058F000FAF7F8FB0A4D0246AB89A91D0878A342C6
:1059000001D1830606D5DF2318400870104600F049
:1059100023FAAC8170BD0000B80B00000627000020
:105920001C00002038B5354800900C231F220021B0
:105930004220FFF7E5FC324800904B23152203215B
:105940001E20FFF7DDFC2F4800904B23152203217A
:105950006E20FFF7D5FC2C4C04231C2227210220AB
:105960000094FFF7CDFC04231C22272184200094FF
:10597000FFF7C6FC254800900A23102216210820B4
:10598000FFF7BEFC224800900E2308222F210C2096
:10599000FFF7B6FC1F480E2300901A4614218A20F8
:1059A000FFF7AEFC1C4800900E2308222E218C200D
:1059B000FFF7A6FC1948FAF7E5FFFFF7E7FD002817
:1059C0000ED001233E22402115A0FFF7C7FD164847
:1059D000FAF7D8FF15480079000706D5144805E006
:1059E00001233E22442113A0EFE7134800900E2329
:1059F000102216216820FFF783FC38BDB88C000800
:105A0000A08F0008EE9B00083CA800088CCE000880
:105A100054D10008CCCF000834D20008FF070000A2
:105A20004155544F00000000FFFF00000803002014
:105A30002CD4000852424100ECD5000870B5114C3E
:105A4000054601462089FFF7E1FEA31D052804D97C
:105A50002278501C20700A2A02D8187840060ED5E9
:105A60001878BF2108401870002020702846FEF7E3
:105A700063FE0548258101218171084670BD002023
:105A800070BD00001C0000204803002008B5074836
:105A9000009028232D2202213920FFF731FC012319
:105AA00037221E2102A0FFF759FD08BD7CC0000867
:105AB0004C4F572042415454455259200000000099
:105AC00008B50748009028232D2202213920FFF72E
:105AD00017FC01233722282102A0FFF73FFD08BD54
